S02B000057494E43313530305F4F54415F4649524D574152455F555047524144455F4558414D504C45322E7339
S1130000F821002001410000FD400000FD400000F7
S113001000000000000000000000000000000000DC
S1130020000000000000000000000000FD4000008F
S11300300000000000000000FD400000FD40000042
S1130040FD400000FD400000FD400000FD400000B8
S113005009290000FD400000FD400000FD400000B3
S1130060FD400000F52E0000052F0000152F0000B4
S1130070252F0000352F0000452F0000FD40000013
S1130080FD400000FD400000FD400000FD40000078
S1130090FD400000FD400000FD400000FD40000068
S11300A0FD400000FD400000FD400000FD40000058
S11300B00000000010B5064C2378002B07D1054B37
S11300C0002B02D0044800E000BF0123237010BDC0
S11300D0780000200000000018680000084B10B5EC
S11300E0002B03D00749084800E000BF0748036815
S11300F0002B00D110BD064B002BFBD09847F9E72D
S1130100000000007C00002018680000186800004F
S11301100000000070B50020084B98470500084C0B
S1130120FA218900A047074B186007492800A04717
S1130130064B18600522064B1A6070BD8D3E000008
S1130140694500000000002040420F000400002028
S113015010E000E030B5084B1C68084A00258021F7
S11301604902013807D3002CFBD054609560136812
S11301700B42FCD0F5E730BD0000002010E000E0A9
S113018010B5034B1B68002B00D0984710BDC04628
S11301909400002070B5441E002804D0024D0120B4
S11301A0A847013CFBD270BD55010000F8B5074CCF
S11301B020276761402666616420054DA847A76132
S11301C00A20A847A6610A20A847F8BD8044004138
S11301D09501000070B582B00023134A136001AC8E
S11301E001256570A3702570210026200F4EB047AD
S11301F021002520B04721002720B0470C4B1B6865
S11302001D4203D00A4B1B689B0701D4094B984736
S1130210094B98470122094B1A70BFF35F8F62B6EE
S1130220002002B070BDC046940000206D2A00007A
S113023010E000E015010000AD01000010000020F6
S113024010B584B00E4B186001AC20000D4B9847DC
S11302502423019300236360013323720133E37287
S113026021000420084B9847002204210748084B2A
S1130270984700210420074B984704B010BDC0469E
S113028094000020E1290000F5290000810100000C
S11302909D280000C928000010B5002804D10021C1
S11302A00420044B984710BD00210420024B9847BA
S11302B0F9E7C046E9280000C928000030B591B02C
S11302C0304C0523237000236370A37001A901221D
S11302D04A708B700A7005202B4B98472278D109FD
S11302E00023002904D15309DB0128498C466344C7
S11302F01F211140012210008840986102AC227035
S113030000230393049323746374A274E274237527
S11303102332A354183A002108A81D4B9847802380
S11303205B02E3601B4BA36201235B42E3621A4B53
S113033023631A4B63631A4BA361220019491A48B9
S11303401A4B984700281AD1174D2C682000184BD7
S113035098471F2318401E3B8340164A13602A689F
S1130360D369002BFCD12368022213432360124B70
S113037098470120114B9847002011B030BD06204A
S11303804042FAE7480100206D2A00000044004181
S11303901D470000030004000300060003000700DB
S11303A0001BB700000800424C010020552F00003C
S11303B0C52E000000E100E0AD0100009501000041
S11303C0F0B5DE4657464E464546E0B585B00328AF
S11303D06CD10E684D680C89002202ABDA71002ED4
S11303E028D0002D5FD101239B460023019302AB4B
S11303F0DD1D012235493648364B9847002C3FD045
S1130400334B9A4601270422994659464B42594197
S11304108C46307853461B68197E3942FCD0197ECD
S11304203942FCD09862197E1142FCD04946897940
S113043088460DE000239B460133019302ABDE1D89
S1130440D7E7404601280DD0986AC0B200290DD0E4
S1130450197E1142FCD0588B00211042F1D05A83EE
S11304601E31EEE7986AC005C00DEFE72870013C25
S1130470A4B26544019B59424B41F618002CC8D1E3
S1130480134B196802220B7E1342FCD000220F4941
S11304900F48104B9847002005B03CBC9046994645
S11304A0A246AB46F0BD06204042F5E78622520044
S11304B009490A480A4B98470A480B4B98470D20AC
S11304C00A4B984701204042E6E7C0464801002015
S11304D04C0100202D31000078580000885800009D
S11304E02D4700009C580000494800006147000067
S11304F070B50B4D2C6820000A4B98471F231840F9
S11305001E3B8340802208498B502A68D369002B04
S1130510FCD12368022293432360002070BDC046AF
S11305204C010020C52E000000E100E0002A06D0A6
S113053082180B780370013001319042F9D1704771
S1130540002A04D08218017001309042FBD1704718
S113055003000278002A07D00020013080B2013362
S11305601A78002AF9D170470020FCE7024A137870
S11305700133DBB2137070479B000020704700000A
S113058000B583B00120094B984701A90848094BDD
S11305909847002801D003B000BD0221019B1943F4
S11305A001910348044B9847F5E7C04699020000BF
S11305B070100000811A00008D1A000010B50F4B56
S11305C01B78002B07D10E4B1B78032B0AD00C4B46
S11305D01B78042B06D0094A13780133DBB213705D
S11305E0002010BD074B98470028FAD10649074858
S11305F0074B98470028EED0F3E7C0469900002047
S113060098000020B1150000785600007410000016
S11306108D1A000000B583B0174B1B78002B04D053
S1130620154A1378013BDBB21370134B1B7800207F
S1130630002B07D1114B1B78032B05D00F4B1B78D4
S1130640042B01D003B000BD002301930C490D48D5
S11306500D4B98470028F5D101A901300B4B984761
S11306600028EFD101998B07ECD50223994301911E
S11306700130054B9847E5E79900002098000020D9
S113068021430000741000008D1A0000811A00003C
S1130690F0B5DE46574680B589B083468A46019256
S11306A0009310AB80CB1E8812AB1D887F220A40BA
S11306B007AB5A70187008225A80002F00D192E0BC
S11306C05A889219AA1892B25A805A4B9847041E13
S11306D000D099E00023059302AAD3800493049BDD
S11306E05A461A430492049A53461B021343049332
S11306F007AB5B88049A1B041343049304994E4884
S11307004E4B9847041E00D08AE000230493049BB8
S113071002221343049304994948484B9847041E02
S113072000D07DE00022059202ABDA8006331B88FC
S11307309BB2444A934213D8434C04A94048A0476F
S113074000280DD1049B9B0755D502ABDA880132F2
S113075092B2DA8006331B889BB23A4A9342ECD9B0
S1130760059B002B62D0059B069307A94B889BB27F
S11307704B8006980822354B9847041E50D1069B9F
S113078008330693019B002B0BD00698009A19009E
S11307902E4B9847041E43D1069B009A944663440B
S11307A00693002F0ED0069B009AAD1AED180695FD
S11307B0069832003900254B9847041E30D1069B19
S11307C0F3180693059B9B000493049B0222134396
S11307D0049304991E48194B9847041E20D11D4BBD
S11307E0984704001CE007AB5A8800998C46624481
S11307F092B25A8069E705A91748134B9847002815
S1130800AED000230593ABE7A022FF32134914486E
S1130810144B98471448154B98470D20144B984790
S1130820200009B00CBC92469B46F0BD03246442F0
S1130830F6E7C046BD0500008C1000008D1A0000CC
S113084078100000E7030000811A0000011B00007B
S11308506C1000001506000000041500D0580000BC
S1130860885800002D470000205B00004948000024
S113087061470000F0B5CE46474680B587B0A44B2B
S113088098469946D7E004AD042229000598A14B67
S1130890984704006B889BB26B8000282CD104AB72
S11308A05B889BB29E4204D004AB5B88F31A042B92
S11308B032DC04AB1B78012B47D004AB1B78022B32
S11308C062D004AB1B78042B6CD004AB1B78062BD2
S11308D076D004AB1B78072B00D17FE08E4A8F497A
S11308E08F48904B98479048904B98470D20904BD9
S11308F09847062464429CE0EB22520087498848CA
S1130900884B98478B48894B98470D20884B9847CC
S11309100120894B98478CE0E022FF327F498048D0
S1130920804CA04704A94A8892B20B78DBB249787C
S1130930009131008148A0470D207D4B984701204C
S11309407D4B98470624644273E07D4B1B68002B63
S113095008D004AA5078C0B25188059A08320839E0
S113096089B29847774B1B78002B5FD1764A6B4945
S11309706B486C4B984775486C4B98470D206C4BF3
S11309809847734B984751E0724B1B68002BE9D092
S113099004AA5078C0B25188059A0832083989B23D
S11309A09847DFE76C4B1B68002BDBD004AA507818
S11309B0C0B25188059A0832083989B29847D1E7FC
S11309C0664B1B68002BCDD004AA5078C0B2518866
S11309D0059A0832083989B29847C3E7604B1B6807
S11309E0002BBFD004AA5078C0B25188059A0832AF
S11309F0083989B29847B5E75A4A48494848494BA3
S1130A0098475948494B98470D20494B9847022429
S1130A10644234E08622920040494148414CA04758
S1130A2003995248A0470D20414B9847504B984793
S1130A300400002C23D143461B78002B62D04B4684
S1130A401B78013BDBB24A4613704A4F22E04A4A04
S1130A5032493348334B98474848344B98470D2024
S1130A60334B98470BE0892292002C492C482D4B9C
S1130A70984743482D4B98470D202D4B9847414AA2
S1130A8041492748274DA84721004048A8470D2041
S1130A90274B9847B847041EE5D103A93C483D4B72
S1130AA09847041ED3D1039BDB07B3D50020224B08
S1130AB0984701230399994303913548364B984746
S1130AC0041EDCD100221F4B1A70039B9E04360DBA
S1130AD092D00023059305A930482E4B9847041E55
S1130AE000D1D0E6E72252000C490D480D4B98473F
S1130AF02B480E4B98470D200D4B984701200E4B69
S1130B00984796E7002007B00CBC90469946F0BD84
S1130B109B000020991A000002020000DC5800002B
S1130B20885800002D4700008C59000049480000F7
S1130B306147000034590000990200004C5900003C
S1130B40B00000209A00002009020000A45900000F
S1130B5081050000A4000020A80000209C000020C3
S1130B60AC00002011020000C8590000DC5900004C
S1130B7015060000BD0500001E020000F859000023
S1130B801C5A000043020000E45800003C5A0000D4
S1130B9070100000811A00008D1A000084100000FB
S1130BA010590000F0B5CE46474680B583B0060024
S1130BB00C0015001F00002803D0002901D0002AD2
S1130BC019D1002F09D00122314B1A70314B9847AB
S1130BD003B00CBC90469946F0BD2F4A2F493048CB
S1130BE0304B98473048314B98470D20304B98474D
S1130BF00C204042ECE769462E482F4B98470028CA
S1130C00E6D1009B984601A92C482B4B9847002815
S1130C10DED143469B041B0D98469D421AD8019B86
S1130C209E4226D37219914643449A4221D82A00FF
S1130C3021003000224B98470028C9D1019B43442E
S1130C40994501D0002FC3D00122114B1A70114BCA
S1130C509847BDE71B4A11491148124CA047424628
S1130C6029001948A0470D20114B98470C204042F9
S1130C70AEE7A0229200094909480A4B9847134855
S1130C800A4B98470D200A4B98470C2040429FE797
S1130C909A0000208105000069020000F458000059
S1130CA0885800002D4700006C5A00004948000095
S1130CB06147000070100000811A000084100000D9
S1130CC0991A00007A0200008C5A0000D05A0000E1
S1130CD070B5040007281BD88300144AD3589F46D4
S1130CE0134B1960002070BD124B19600020FAE705
S1130CF0114B19600020F6E7104B19600020F2E751
S1130D000F4B19600020EEE70E4B19600020EAE754
S1130D100D4A0E490E480F4DA84721000E48A8471A
S1130D200D200E4B98470C204042DCE7B0580000E1
S1130D30A4000020B0000020A8000020A000002093
S1130D409C000020AC000020B90200000059000003
S1130D50885800002D470000145B00006147000024
S1130D6010B50023094A1360094A1360094A137035
S1130D70094A1370094A137009480A4B98470A49EB
S1130D8003200A4B9847002010BDC046B000002045
S1130D90A400002099000020980000209B0000205F
S1130DA06D050000410200007D050000D10C00002B
S1130DB030B585B0040015006A280ED06B2820D009
S1130DC06B221B491B481C4DA84721001B48A84700
S1130DD00D201B4B984705B030BD102200216846FA
S1130DE0184B98470023102269462800164CA04748
S1130DF00028F0D1154B1B68002BECD068469847AF
S1130E00E9E70422002168460E4B98470023042298
S1130E10694628000C4CA0470028DCD10C4B1B6809
S1130E20002BD8D06A46517810789847D3E7C0464B
S1130E303C5B0000885800002D470000585B000010
S1130E406147000041050000A50B0000B40000202C
S1130E50B800002010B50C0000280BD0114B18600E
S1130E60002C13D0104B1C6010490420104B9847E1
S1130E70002010BD86220F490F48104B9847104898
S1130E80104B98470D20104B9847E9E78B220949EE
S1130E9009480A4B98470D480A4B98470D200A4BBE
S1130EA09847E1E7B8000020B4000020B10D00002D
S1130EB0D10C0000485B0000885800002D4700005A
S1130EC0705B00004948000061470000885B000037
S1130ED010B584B00400074B9847013083B2002258
S1130EE0029201920092220067210420024CA04742
S1130EF004B010BD510500009106000010B584B087
S1130F000023029301930093002268210420024CE1
S1130F10A04704B010BDC0469106000030B59FB094
S1130F20040015002C282FD01B283DD006284BD0B8
S1130F300E2827D0322857D02F2865D0342800D146
S1130F4077E0112800D196E0132800D1ACE0042802
S1130F5000D1BBE0652800D1CAE0092800D1D9E05E
S1130F602A2800D1E8E0202800D1F7E0922252009C
S1130F7089498A488A4DA84721008A48A8470D20F4
S1130F80894B98471FB030BD0023042203A92800D1
S1130F90864CA0470028F5D1854B1B68002BF1D067
S1130FA003A92C309847EDE70023082203A9280061
S1130FB07E4CA0470028E5D17D4B1B68002BE1D077
S1130FC003A91B309847DDE70123302203A9280039
S1130FD0764CA0470028D5D1754B1B68002BD1D087
S1130FE003A906309847CDE70023102203A928005F
S1130FF06E4CA0470028C5D16D4B1B68002BC1D097
S113100003A932309847BDE76422002103A8694B45
S113101098470023642203A92800644CA0470028B1
S1131020B0D1634B1B68002BACD003A92F30984779
S1131030A8E70023042203A928005C4CA047002849
S1131040A0D15D48564DA847039C230AFF200340C6
S1131050220C0240210E204000905848A8470D2041
S1131060514B9847524B1B68002B00D18AE7002153
S11310703420984786E70022514B1A70002304322B
S113108003A92800494CA047002800D07AE703AB05
S11310901A784C4B1A70464B1B68002B00D171E731
S11310A003A9113098476DE700232C2203A92800D7
S11310B03E4CA047002800D064E73D4B1B68002B42
S11310C000D15FE703A9133098475BE700230422AC
S11310D01CA92800354CA047002800D052E7344B07
S11310E01B68002B00D14DE71CA90430984749E741
S11310F0002304221CA928002C4CA047002800D05F
S113110040E72B4B1B68002B00D13BE71CA9653043
S1131110984737E70123642203A92800234CA047FA
S1131120002800D02EE7224B1B68002B00D129E7B2
S113113003A90930984725E70123042203A92800BD
S11311401A4CA047002800D01CE7194B1B68002B41
S113115000D117E703A92A30984713E70023082290
S113116003A92800114CA047002800D00AE703ABCC
S11311709A8828000830012303990C4CA0470028C2
S113118000D0FFE60A4B1B68002B00D1FAE603A946
S113119020309847F6E6C046A05B0000885800005F
S11311A02D470000FC5B000061470000A50B000018
S11311B0BC00002041050000D05B0000DC5B0000A7
S11311C0C1000020C0000020F0B58BB001226B46A6
S11311D0DA7100284DD00268274B1A600022274B91
S11311E01A706B46D81D264B9847041E02D0200067
S11311F00BB0F0BD0020234B9847041E35D1224983
S11312000120224B984702AD2800214B9847040047
S11312102048214EB047AB796A7929791F48B047F5
S11312200D201F4FB8471B48B0476B7A2A7AE979DB
S11312301C48B0470D20B8471648B0470023032286
S113124013211948B0470D20B84723000D33CED1E0
S1131250D022FF32154916480F4B98471548164BB4
S113126098470D200E4B9847C1E70020134B984731
S1131270BDE70C246442BAE7BC000020C100002092
S11312801D1C0000610D00001D0F0000D10C0000AA
S1131290691B0000D05B00002D470000B85C000013
S11312A061470000D45C0000F05C0000AC5B00000F
S11312B0885800000C5D000049480000F11C000043
S11312C010B5014B984710BD75080000F0B5CE4627
S11312D0474680B5A3B005900C0015001F002AAB4B
S11312E01B8899462BAB1B789846012A03D0002F04
S11312F03DD0022A4AD0631E1F2B00D976E04B460C
S11313000D2B02D9FF2B00D07EE007AE22000599F9
S11313105A2002AB9C466044784B984734194634B3
S11313200023237044334A46F25243465A1E9341E3
S11313306722B3544123F554032D00D173E0022DE9
S113134000D1ACE0042D00D1C4E0012D00D0C7E0F1
S113135000230293019300936C3307AA28210120F0
S1131360674CA04723B00CBC90469946F0BDFE22C2
S1131370FF3264496448654B98476548654B984714
S11313800D20654B98470C204042EBE73800634B37
S113139098474028AFD13B781A00303A362A17D8FC
S11313A00A3A062A14D9473B192B11D97A1C38005A
S11313B04030137819003039362909D80A390629FA
S11313C006D9473B192B03D901328242F1D192E766
S11313D0534A4C494C484D4B984752484D4B9847BB
S11313E00D204D4B98470C204042BBE74E4A4549DF
S11313F04548464B98474D48464B98470D20464B29
S113140098470C204042ADE7872292003D493E4870
S11314103E4B984746483F4B98470D203E4B9847D4
S11314200C2040429EE73B78013BDBB207AA1370D5
S1131430032B17D87A78511E07AB5970102311006B
S113144099430B291DD03B4A2E492F482F4CA047C6
S113145007AB59783848A0470D202F4B98470C20EC
S113146040427FE7354A27492748284CA04707AB25
S113147019783348A0470D20274B98470C20404249
S113148070E7B91C162002AB9C4660441B4B98477E
S11314907B7807AA9446634400229A7058E7380080
S11314A01E4B9847431E9BB23F2B05D8421C390064
S11314B007A8124B98474BE7224A12491248134B8C
S11314C098472148134B98470D20134B98470C20FD
S11314D0404247E73E22390007A8084B984737E7C0
S11314E01A4A08490848094B98471948094B98472C
S11314F00D20094B98470C20404233E72D0500008E
S113150091060000BC5B0000885800002D470000D5
S1131510105C0000494800006147000051050000CC
S113152009020000245C000013020000305C00008B
S1131530445C00003A0200006C5C000033020000CE
S1131540505C000049020000885C00005902000061
S1131550A45C000030B583B006AC24880025019556
S11315600094024CA04703B030BDC046CD12000029
S113157000207047F0B583B00400A5256D010A4E24
S11315800A4F21002800B047002C09D00023019302
S113159001A92800B8470028F3D1019B9C42F0D14F
S11315A0002003B0F0BDC0468D1A0000811A00006F
S11315B0F0B5D6464F4680B585B00120414B9847DB
S11315C003A90120404B984701900024002806D12C
S11315D03E4B9A463B4B99463D4F1E0026E07222F5
S11315E03C493D483D4B98473D483E4B98470D206C
S11315F03D4B98470BE0962236493748374B98477E
S11316003A48384B98470D20374B98470195019835
S113161005B00CBC91469A46F0BD0221039B1943C8
S113162001202A4B9847029B5B07F0D40221039BBD
S113163019430120D0470120C8472D4B186802A93F
S1131640214B9847002802D1029B002B1AD1284D28
S11316500E232B6001201B4B9847286802A91A4BC4
S11316609847002802D1029B002B0BD1204D132355
S11316702B600120134B9847286802A9124B984706
S1131680051EB8D11A4D029B5B07C0D40134032157
S11316902000B8470029C0D10220B04702A9286819
S11316A0094B9847029B5B07EDD4AA2209490A48D3
S11316B00A4B98470F480B4B98470D200A4B984705
S11316C0E1E7C04695010000811A00008D1A000070
S11316D075460000285D0000885800002D47000072
S11316E08C5D00004948000061470000AC5D0000CB
S11316F00C000020CC5D000000B583B001A91748A0
S1131700174B984700281DD180214900019B19439C
S113171001911248134B9847002816D101A9D020F3
S113172040010F4B9847002812D180214902019BA8
S113173019430191D02040010A4B984700280AD14F
S113174003B000BD06204042FAE706204042F7E716
S113175006204042F4E706204042F1E70814000066
S1131760811A00008D1A000010B582B0284B1C6845
S1131770002C04D0264B1C68200002B010BD1900B8
S113178080204001234B9847002803D00022204B9F
S11317901A60F1E701A920481E4B9847002803D09E
S11317A000221B4B1A60E7E7194B1B681B4A934244
S11317B00ED01B4A934212D01A4A93421CD01449A9
S11317C0194A0B681A40A023DB0213430B60D1E7CC
S11317D0019B012BF3D0154A0D4B1A60EFE7019BD7
S11317E0032BECD0042B03D0114A094B1A60E6E713
S11317F0104A074B1A60E2E70549EC208003054BC9
S113180098470028DBD00022014B1A60B4E7C04699
S1131810C4000020811A0000F4130000A00210008C
S1131820B0021000F0001000FFFFF0FFA102100052
S1131830B2021000B1021000F8B50700244D254C87
S1131840254E2800A047002802DB0120B047F8E716
S11318502248204B9847C30709D41F4E204C1D4DE6
S11318600120B0472000A8471E4B9842F8D1022F10
S113187016D0032F1ED0043F7B425F41FF011A4B59
S113188098470005000DE8239B0098421BD03800C0
S1131890164B984716491248164B98470020F8BD36
S11318A015491648134CA047802149031448A04702
S11318B00027E4E7104911480E4CA04700211048C6
S11318C0A0470027DBE702203843084B9847E1E7AD
S11318D014100000751A000095010000BC070200F6
S11318E00C000C009ED0AD106917000075150000A7
S11318F0612F52EF8D1A00007DD51C3CAC0702000D
S11319008C10000070B582B0154B0193154B0093F9
S11319100238012811D9012464420020124E134DCB
S1131920009B98420ED00220B0470198A847013C82
S1131930002CF5D10520404209E00D4B01930D4BDD
S11319400093E8E7009A074B00209A4201D002B0C6
S113195070BD00210248084B98470020F7E7C046B5
S11319608C1000003626530295010000751A000001
S1131970AC070200C3C15DD78D1A0000F0B583B077
S11319800023019301A9A0204001274B9847002878
S113199024D12649019B19400191A0204001244BE8
S11319A0984704000A25002824D11F4E204F01A97E
S11319B0A0204001B047041E28D101994B050AD547
S11319C01A4B19400191A0204001B8470400013D81
S11319D0EDB2002DEBD1200003B0F0BD154A16493D
S11319E01648174B98471748174B98470D20174B25
S11319F09847CEE7164A10491048114B98471548A6
S1131A00114B98470D20114B9847E4E78F22920021
S1131A1009490A480A4B98470F480B4B98470D2031
S1131A200A4B9847D7E7C046811A0000FFFBFFFF27
S1131A308D1A00002F020000385D00008858000055
S1131A402D470000445D0000494800006147000044
S1131A50350200005C5D0000745D000010B5014BB0
S1131A60984710BDBD02000010B5014B984710BD4A
S1131A70F104000010B5014B984710BD1523000078
S1131A8010B5014B984710BD2923000010B5014B38
S1131A90984710BD41230000F0B5D6464F46464650
S1131AA0C0B582B0804689461500134B1F88083F95
S1131AB0BBB201931E0004009A421AD90F4B9A46F6
S1131AC0371A4346E11A4944019A2000D0470028B6
S1131AD009D1AD1B3919A419B542F2D8AAB24944A7
S1131AE02000064B984702B01CBC90469946A2467B
S1131AF0F0BD0021F2E7C046080000208124000068
S1131B00F0B5D6464F464646C0B582B080468946B3
S1131B101500134B1F88083FBBB201931E0004003D
S1131B209A421AD90F4B9A46371A4346E11A494446
S1131B30019A2000D047002809D1AD1B3919A419F6
S1131B40B542F2D8AAB249442000064B984702B0E5
S1131B501CBC90469946A246F0BD0021F2E7C0465F
S1131B60080000205925000070B582B0040000234D
S1131B70019301A92248234B98470600224B019A5E
S1131B809A4233D0019A110C8BB2180AE0711B09E6
S1131B900F252B4023722940617293B2190A2171D7
S1131BA01B092B4063712A40A271184B984720608F
S1131BB022791202A3792B40134362791201FF2187
S1131BC00A401343E2791202607A05401543227AEF
S1131BD0120111400E4A0D43954201D90D26764259
S1131BE00C4A934208D9300002B070BD01A90A48DA
S1131BF0044B98470600C5E70D267642F3E7C04636
S1131C00AC070200811A0000C3C15DD76917000048
S1131C10301300002F1300004810000070B5002896
S1131C2037D005786B1E032B00D901250020204BEB
S1131C309847041E2FD11F481F4CA0471F4B98479D
S1131C4001001F48A0470D201E4B98471E4B984784
S1131C5028001E4B9847041E17D128001C4B984798
S1131C60041E12D1023D012D11D91A4B9847041EAE
S1131C700DD0AE225200184918480F4B9847184807
S1131C80184B98470D200F4B9847174B9847200047
S1131C9070BD0125CAE7922252000F490F48064B36
S1131CA0984712480F4B98470D20064B9847EEE78C
S1131CB05D1A0000D05B00002D470000691700008A
S1131CC0A85E000061470000592300003918000095
S1131CD005190000F9160000F05D000088580000A6
S1131CE06C5E000049480000691A00008C5E000028
S1131CF010B51C4B9847041E0BD100201A4B984773
S1131D00041E14D1194B9847041E1DD1184B984733
S1131D100BE0BA22520017491748184B9847184845
S1131D20184B98470D20184B9847200010BD7C2273
S1131D30FF3210491048114B98471448114B9847EB
S1131D400D20114B9847F0E78222FF3209490A48D7
S1131D500A4B98470E480B4B98470D200A4B98475F
S1131D60E3E7C0467D1900000D270000691A000052
S1131D7005230000FC5D0000885800002D4700008A
S1131D800C5E000049480000614700002C5E000022
S1131D90505E000000B585B001AB002201920290B4
S1131DA0198119000320024B984705B000BDC046B5
S1131DB0C1030000F0B5C64600B582B00700CF28C5
S1131DC02BD003003B33DBB2012B26D90B246B460B
S1131DD0DE1D264B984601213000C047051E25D143
S1131DE03378BB4230D0013CE4B2002CF3D10B3445
S1131DF06B46DE1D1D4F01213000B847002825D158
S1131E003378002B2FD0013CE4B2002CF3D1012510
S1131E10280002B004BC9046F0BD01216B46D81DD9
S1131E20124B984700250028D0D0F1E72822FF3232
S1131E300F491048104B98471048114B98470D20F4
S1131E40104B98470025E3E70B24D1E73622FF32F5
S1131E5007490848084B98470848094B98470D20FC
S1131E60084B9847D4E70125D2E7C046951D0000EA
S1131E70FC5E0000885800002D4700003463000019
S1131E804948000061470000F0B5DE4657464E461B
S1131E904546E0B587B001908946029200239A46F0
S1131EA080239B019B466A46D3813D4B98462FE095
S1131EB05822FF323B493C483C4B98473C483D4BF9
S1131EC098470D203C4B98470025280007B03CBCA0
S1131ED090469946A246AB46F0BD002C2EDD019BF0
S1131EE05344180039002E4B9847041E34D1029BEA
S1131EF0002B03D1314B1B78002B3AD05346FB18EF
S1131F001BB29A464B46DF1BBBB29946002B44D00A
S1131F104F46D94501D96B46DF89BFB20A2404ABC9
S1131F20DE1C01213000C047051EC1D133781B09D6
S1131F300F2BD2D0013C24B2631CF2D16422FF32B5
S1131F4018491948194CA04704ABD9781C48A04734
S1131F500D20194B9847B8E7B62252001149124890
S1131F60124B98471748134B98470D20124B98472C
S1131F70ABE7022105A80A4B98470028BED0782277
S1131F80FF3208490848094B98470F48094B9847BE
S1131F900D20094B9847250097E7012595E7C04692
S1131FA0951D0000085F0000885800002D470000C0
S1131FB0686300004948000061470000C800002031
S1131FC09C630000CC630000FC63000000B585B096
S1131FD001AB019000220292198119000320024BE7
S1131FE0984705B000BDC046C103000070B584B079
S1131FF008AC257801AC20703F30C4B20E2C00D957
S113200084E0A0004F4C2058874601AB0A0C5A705C
S11320100A0A9A70D97005214B4B1B78002B77D094
S11320200139C9B283E00B0ADBB2002D07D101AA42
S1132030537001AB99700022DA700521ECE780221D
S11320405242134301AA5370F3E701AB00225A70C2
S11320509A70DA700521DFE701AB00225A709A709A
S1132060DA700521D8E701ABFF225A709A70DA7052
S11320700521D1E701AA080C5070080A9070D170AC
S1132080190A117153710721C6E701AA080C50708F
S1132090080A9070D170190C1171190A5171937159
S11320A00821B9E70B0ADBB2002D0CD101A843705B
S11320B001AB9970110ED970110C1971110A597173
S11320C09A710821A8E780204042034301A8437085
S11320D0EEE701AB080C5870080A9870D970110E1D
S11320E01971110C5971110A9971DA71092193E767
S11320F08422520015491648164B98471648174B28
S113210098470D20164B9847002317E0002315E04D
S11321104E1E01AA95197F23124C5B001078434090
S1132120E35C0132AA42F8D15B0001AA935589B25B
S113213001A80D4B984701230028D9D1180004B0F9
S113214070BDC046B85E0000C8000020F45E000008
S1132150885800002D47000008630000494800002B
S113216061470000705F0000CD1F000070B582B0B1
S113217004000A00302818D90023C9250093042339
S113218021002800174EB047012811D0EC22FF325D
S113219015491648164DA84721001648A8470D2092
S11321A0154B9847002002B070BD0123C325E5E715
S11321B02800124B98470128F5D0F222FF320A4931
S11321C00A480B4DA84721000D48A8470D200A4B8B
S11321D098470023009300220021CF20014CA04700
S11321E00020E0E7ED1F0000285F00008858000091
S11321F02D470000B064000061470000B51D0000D9
S1132200DC640000F0B587B004000391FF2818D9FE
S11322100027CA25009704230022210028002B4E02
S1132220B047012810D02A4A2A492B482B4DA847E9
S113223021002B48A8470D202A4B9847002007B0BF
S1132240F0BD0127C425E5E72800274B984701285E
S113225013D0264A1F492048204DA847210024486E
S1132260A8470D201F4B984700230093002200210C
S1132270CF20164CA0470020E1E73A00042105A82E
S11322801C4B984701280DD105AA53781B0291785D
S113229009040B4311780B43D27812061343039AB3
S11322A01360CCE7144A0B490B480C4B984713486E
S11322B0134B98470D200B4B9847002300930022A3
S11322C00021CF20014CA0470020B8E7ED1F0000FB
S11322D045020000485F0000885800002D470000B8
S11322E03064000061470000B51D00004B0200008F
S11322F05C640000891E000053020000906400002A
S1132300494800000022024B1A7000207047C04662
S1132310C800002000B583B001A9024B984701987A
S113232003B000BD0522000010B5044B98470023FC
S1132330012801D1180010BD063BFBE7052200006F
S113234010B5044B98470023012801D1180010BD93
S1132350063BFBE76D21000010B582B0002300931B
S1132360364A137069463648364B9847002828D0B9
S1132370324B1B78002B0DD17C33009999432C3BB5
S1132380194300912E48304B9847041E3AD001223D
S11323902A4B1A7001A9802040012A4B9847002833
S11323A03CD0274C2000294B9847702301009943C7
S11323B0502001432000264B98470024200002B0FF
S11323C010BD01221D4B1A70224A23492348244B75
S11323D098472448244B98470D20244B9847694636
S11323E01748184B9847041EC2D1B22292001A49CA
S11323F01A481B4B98471E481B4B98470D201B4BF4
S11324009847DBE71B4A14491448154B98471A4868
S1132410154B98470D20154B9847CFE7B7229200EC
S11324200D490E480E4B984714480F4B98470D2002
S11324300E4B984706246442C0E7C046C8000020FB
S113244024E80000052200006D210000152300008F
S113245041230000C5020000645F000088580000AA
S11324602D470000706000004948000061470000EB
S1132470C0600000D2020000EC6000002061000097
S1132480F0B583B004000E00150000230093130080
S113249000220100C820244FB84701280FD09D22F4
S11324A0920022492248234DA84721002248A847E8
S11324B00D20224B98470620404203B0F0BDC820AF
S11324C01F4B9847012812D01E4A18491848194D25
S11324D0A84721001C48A8470D20184B9847002303
S11324E0009300220021CF200F4CA047E3E70022F5
S11324F029003000154B984703000020012BDCD045
S1132500A122920009490A480A4B98471048114BE6
S113251098470D20094B984700230093002200217F
S1132520CF20014CA047C6E7ED1F0000585F000014
S1132530885800002D4700004461000061470000F6
S1132540B51D00007A02000074610000891E0000BD
S1132550AC61000049480000F0B5D64600B586B02D
S113256004008A4615000023009313000022010092
S1132570C720534EB047012810D0524A52495348FD
S1132580534DA84721005348A8470D20524B984764
S11325900620404206B004BC9246F0BDC7204F4B13
S11325A09847012812D04E4A47494848484DA84701
S11325B021004C48A8470D20474B9847002300931F
S11325C000220021CF203E4CA047E1E7002205ABCA
S11325D01A8000268027BF016B46DF8121E000239B
S11325E0AF425B4102330B2002AA9446604410229E
S11325F052421343037001213B4B984700281DD1DD
S1132600534698192100384B9847002836D1374B48
S11326101B78002B3FD0A61936B22D1BADB2002D6E
S11326204CD02C1CBD4201D96B46DC89A4B2002ECF
S1132630D5D10323BD42D6D9023BD4E7D4225200DC
S11326402B492248224B98472A482B4B98470D2068
S1132650214B9847294A1C491C481D4B9847284838
S1132660254B98470D201C4B9847002300930022CC
S11326700021CF20124CA04700208BE7B222FF326A
S11326801B491248124B98471E481B4B98470D2074
S1132690114B9847DEE7022105A8134B9847002801
S11326A0B9D0BC22FF3212490848094B9847164852
S11326B0114B98470D20084B9847CBE7002069E75A
S11326C0ED1F00000F020000385F00008858000072
S11326D02D470000D461000061470000B51D0000D3
S11326E01502000004620000CD1F0000C800002095
S11326F0185F00003C620000494800002602000008
S1132700E062000074620000A862000070B582B04C
S113271004002A4B98470005000D294B00259842D8
S113272002D8280002B070BD01A92648264B98475C
S1132730051EF6D1254B019A1340254919430191F1
S11327402048244B9847002C20D000212248214CBB
S1132750A047AB212148A04701212148A0470021DF
S11327602048A04781212048A047204E204C30001B
S1132770A0470128FBD1154B019A1340802149023F
S1132780194301910F48134B9847CAE70021124897
S1132790104CA047B9211148A04701211048A04777
S11327A000211048A04781210F48A0470F4E104C2C
S11327B03000A0470128FBD1DDE7C04669170000BF
S11327C09F03000010140000811A0000FF8F88F896
S11327D0001011018D1A0000080201000C02010012
S11327E0140201001C02010004020100180201008D
S11327F0751A00000C4B1B68002B06D1EFF31083F5
S1132800002B07D00022094B1A70074A13680133C2
S11328101360704772B6BFF35F8F0022044B1A70C7
S11328200132024B1A70F0E7CC000020D0000020E7
S113283010000020084B1A68013A1A601B68002B2C
S113284009D1064B1B78002B05D00122044B1A70CA
S1132850BFF35F8F62B67047CC000020D000002029
S113286010000020F0B583B001AC0125657000278D
S1132870A770257021003E20064EB0478022D20565
S1132880054B9A612770657021000F20B04703B093
S1132890F0BDC0466D2A0000804400411723002A81
S11328A001D0180070478B00064A9B58002B03D0B8
S11328B0834205D01D23F4E7890088500023F0E704
S11328C00023EEE78C0100201723002901D0180013
S11328D0704700221F2800D8024A01238340D36096
S11328E00023F4E7001800401723002901D0180042
S11328F0704700221F2800D8024A012383409360B6
S11329000023F4E70018004070B50022104B1A7041
S1132910002310491F25104E0D4C0AE00D4908E014
S113292023780133DBB223700F2B10D800211F2B27
S1132930F4D9280018400122824008691042EFD0DF
S11329400A619B009B59002BEAD09847E8E770BDC9
S113295088010020001800408C010020044A1378EC
S113296002210B43137053785BB2002BFBDB7047DF
S11329700018004000B583B0124A936940210B430C
S1132980936101A900230B7005200F4B9847052084
S11329900E4B98470E4A137801210B43137053785A
S11329A05BB2002BFBDB0B4B19004031002204C34C
S11329B09942FCD11022084B1A60084B984703B087
S11329C000BDC04600040040A53F0000193F0000C0
S11329D0001800408C01002000E100E05D290000A7
S11329E00023036043600122027242728372023345
S11329F0C3727047F0B583B005000C0001A9002331
S1132A004B70CB7023790B70237A8B702078154B25
S1132A10984700201F2D00D8134807222A4092000F
S1132A20E77AA37A002B01D008231F43EB089B000D
S1132A30C31899690F269640B14397403A000A4358
S1132A409A61637A002B06D143690122AA40934319
S1132A50436103B0F0BD42690123AB4013434361BA
S1132A60F7E7C0469D4000000018004000B583B061
S1132A7001AB80221A700A785A704A789A708A7860
S1132A80DA701900014B984703B000BD9D40000067
S1132A9010B5490840230024814202D2180010BD19
S1132AA01C00091A631C9BB28842F9D94023FF2CED
S1132AB0F4D814800023F1E7F0B5DE4657464E46BD
S1132AC04546E0B589B00C00059212AA11780500BC
S1132AD04D434022A54207D9100009B03CBC9046A2
S1132AE09946A246AB46F0BD002B55D10200080022
S1132AF00021634DA84783462600002700230024B5
S1132B0000930194002200233F2020218C461F398A
S1132B100296039714E06446241A0D00E540A84683
S1132B2015E0029C039D121BAB414D46009E019F84
S1132B3035433C00464634430095019401381DD387
S1132B40202464420419E6D40D00A540A8460C00D4
S1132B508440A14692185B4114001D0046465F461E
S1132B603E4203D00E00264332002B00029C039DFC
S1132B709D42E3D8D5D19442E0D8D2E70022012384
S1132B8000980199121A8B411900130C0A041A4374
S1132B90059B1A8000229FE70022012BF8D1630FC6
S1132BA00493E30098460A0000230021344CA04714
S1132BB004000D0000239C46069320339B46012607
S1132BC06346079348E05946C91B3000C840824613
S1132BD010E000980199121A8B410299484601436A
S1132BE00291013F25D3202149427918EBD43000CA
S1132BF0884082463100B940894692185B411000F2
S1132C00190044464D462C40A4465446049D2C408D
S1132C10A246644655462C4303D0340004432200A4
S1132C200B00009801999942DBD8D2D19042D8D8B0
S1132C30CFE7009C019D0299079A8B1ADB08114982
S1132C408B4214D9069B0133DBB21900069313009F
S1132C5001330793082908D000230293002200239C
S1132C603F21009401950F00BDE7402234E7402244
S1132C700699082900D12FE74A031A4388E7C0467A
S1132C8081460000FF1F000010B582B004000E4B07
S1132C901B78002B07D0002905D10B4B5B788342AE
S1132CA010D01D200CE001A90C701320074B98478D
S1132CB01320074B9847044B5C7001221A700020C4
S1132CC002B010BD0020FBE7D4000020A53F0000A7
S1132CD0193F0000404B984231D00AD93F4B9842EB
S1132CE04DD03F4B98425AD03E4B984237D00020AB
S1132CF070473D4B98420CD03C4B9842F7D1012988
S1132D0017D000295DD0022915D0032915D0002041
S1132D10EEE7012907D0002951D0022905D0032963
S1132D2005D00020E4E73248E2E73248E0E73248E1
S1132D30DEE73248DCE73248DAE73248D8E70129EF
S1132D4007D000293FD0022905D0032905D000204F
S1132D50CEE72D48CCE72D48CAE72D48C8E701291E
S1132D6007D0002931D0022905D0032905D000203D
S1132D70BEE72848BCE72848BAE72848B8E701294D
S1132D8007D0002923D0022905D0032905D000202B
S1132D90AEE72348ACE72348AAE72348A8E701297C
S1132DA007D0002915D0022905D0032905D0002019
S1132DB09EE71E489CE71E489AE71E4898E71E486F
S1132DC096E7032094E71D4892E71D4890E71D48C5
S1132DD08EE71D488CE7C0460010004200180042F0
S1132DE0001C00420014004200080042000C004293
S1132DF003000500030006000300070003000100B0
S1132E0003001E0003001F000300090003000A0062
S1132E1003000B0003001100030012000300130061
S1132E2003000D0003000E0003000F000300170051
S1132E300300180003001900030004000300080045
S1132E400300100003000C000300160030B587B027
S1132E500B4B6A4632CB32C232CB32C2009B834226
S1132E600BD001239A0069465258824206D001339E
S1132E70062BF7D1002007B030BD0023D8B2FAE703
S1132E801465000070470000F0B50A4B1B78002B56
S1132E900CD1094F094E0A4D0024DE515A19146011
S1132EA00433182BF9D10122024B1A708000024B13
S1132EB0C150F0BDD6000020D8000020852E0000AF
S1132EC0CC01002000B583B009236A461370013396
S1132ED05370013393700133D37001331371013391
S1132EE05371034B98476B46185603B000BDC04658
S1132EF04D2E000010B5024B1B680020984710BDF2
S1132F00D800002010B5024B5B680120984710BD23
S1132F10D800002010B5024B9B680220984710BDD2
S1132F20D800002010B5024BDB680320984710BD81
S1132F30D800002010B5024B1B690420984710BD2F
S1132F40D800002010B5024B5B690520984710BDDE
S1132F50D8000020F0B58BB005000C0016002960E5
S1132F600B681C209B0701D50BB0F0BD0B6817380C
S1132F70DB07F9D40800604B9847604A116A871C44
S1132F800123BB400B43136209A92427F35D0B7093
S1132F901430C3B201931800594B98470198594B08
S1132FA09847F05D0021584B98473378012B38D06F
S1132FB02B000C3329002831002204C38B42FCD19E
S1132FC00023EB62AB620024AB862B863633EC54D1
S1132FD00133EC540133EC54353B6B722C7128688B
S1132FE0454B984707004949494B9847BF00494B0F
S1132FF0FD502F6804AB80221A705C707F3A9A707F
S1133000DC703378002B02D1002204AB9A70B36ACF
S11330100593F36A0693336B0793736B0893002449
S11330200BE023680C2213432360C1E738003A4BBA
S113303098470AE00134042C10D0E1B2A30002AA9C
S11330400C201218D0580028F0D0431CF2D004A948
S11330500870000CC0B2314B9847EBE733786B71C2
S1133060337CAB71B37CEB71337D2B72002202ABEA
S1133070DA803378012B28D07368B2681343F2687E
S11330801343317C727C002A03D1254A927892073B
S113309001D580221343B27C002A02D080229202FE
S11330A01143F27C002A02D0802292001143327D27
S11330B0002A02D08022920111433A6813433B60F4
S11330C07B680B437B6000204EE728680A4B9847D7
S11330D01430C0B2134B9847010002AB9A1DB0697B
S11330E0114B984703001720002B00D03CE702AB9C
S11330F006331B783B73BFE74D2E000000040040ED
S1133100A53F0000193F0000892C00002132000077
S1133110892E0000CC010020D52C00009D40000029
S113312000200041C13F0000912A000010B54479FD
S11331301523012C01D0180010BD047A0023002CA3
S1133140F9D1002A58D04B78002B44D003681B7E59
S1133150DB0710D40A78D1090023002904D15309CC
S1133160DB012E498C4663441F21114001228A4011
S11331709A610523DFE70A78D4090023002C04D1DF
S11331805309DB01254CA44663441F241440012247
S1133190A2405A6103681A7ED20701D58A789A62DE
S11331A0C2790023002AC6D102680421137E0B428F
S11331B0FCD0117E00234907BDD5538B5B0701D595
S11331C0042353838379012B02D0936A0023B2E74B
S11331D0936A0023AFE70A78D1090023002904D1B8
S11331E05309DB010D498C4663441F211140012220
S11331F08A405A6100239EE70A78D10900230029F6
S113320004D15309DB0105498C4663441F21114055
S113321001228A409A6100238DE7C04600440041A0
S1133220F8B58000704BC45826683723E75C362213
S1133230A25C1740337EB57D1D40EB0702D5637950
S1133240012B1ED06B0711D5738B5B075AD5637A9C
S1133250012B08D01E223823E254353B637202331B
S113326033753B074AD4B36A04237383AB0703D58E
S11332706379012B00D197E06DB2002D00DAA9E04B
S1133280F8BD637A002B22D0637A002BDAD0216850
S1133290E26A1378DBB2501CE062A079012827D0DF
S11332A09BB2DB05DB0D8B62A38E013B9BB2A38635
S11332B0A38E9BB2002BC5D101333375637A012BE6
S11332C0C0D1E379002BBDD10233B375BAE7474BC4
S11332D01B88B362638E013B9BB26386638E9BB291
S11332E0002B01D1013333756379012BCCD0A9E7CD
S11332F05078000203430232E262D2E72000A3695D
S11333009847B0E7637A012B28D023689B6ADB05D2
S1133310DB0DDAB2A16A0A70A26A511CA162A1791A
S1133320012934D0238E013B9BB22386238E9BB28A
S1133330002B00D09AE700223833E254343B337533
S1133340637A022B29D0637A002B00D08EE7BB0767
S113335000D48BE720002369984787E723689B6A9A
S1133360638E013B9BB26386638E9BB2002B00D0BD
S11333707CE70433337500223433E254353B637203
S1133380FB0700D472E72000E36898476EE71B0A46
S11333905370A36A0133A362C4E77B0700D465E7D3
S11333A020006369984761E7637A012B00D063E7E3
S11333B0E379002B00D05FE7023333750133637286
S11333C000223533E254FB0700D455E72000E368BC
S11333D0984751E78023337533767B0600D44FE753
S11333E0636A200098474BE7CC010020E4010020E9
S11333F0F0B5DE4657464E464546E0B591B0050069
S11334000C00160029600800BB4B98470200236893
S11334100520DB0706D511B03CBC90469946A24670
S1133420AB46F0BD236817309B07F4D4B349086A50
S1133430971C0123BB4003430B620FA92D27F35DA7
S11334400B701432D3B202931800AD4B9847029814
S1133450AC4B9847F05D0021AB4B9847F37A6B7106
S11334602423F35CAB712523F35CEB71F37E2B72A5
S1133470337F6B722B68984618009F4B9847143023
S113348000220E2306A98C4663441A80328A0292D3
S11334908023DB019A4200D19CE00FD9C023DB01D9
S11334A0029A9A4200D190E080231B029A4200D0F3
S11334B01DE1032306930023079308E080239B0167
S11334C09A4200D013E1102306930F3B079333680D
S11334D00593F3689B4673690393337E0493262311
S11334E0F35C9A4673689946002B00D19EE08023D2
S11334F05B05994500D182E0737E002B02D0B37E38
S1133500424693732A68029FD369002BFCD10E3381
S113351006AA944663441B8842469381059B5A46F7
S11335201343039A13434A4613431F43049B1B024A
S11335301F4353465B071F432723F35C002B01D132
S113354004331F43737E9B02327F52021343727F04
S1133550120213432422B25C520413432522B25CA8
S113356012041343F17A19433389FF2B00D181E00C
S113357080225204174319432C23F35C002B03D1FC
S1133580624B9B789B0701D580231F432A68D3692C
S1133590002BFCD1434659602A68D369002BFCD127
S11335A043461F600EAB80221A7000225A70DA70F4
S11335B09A70336B0A93736B0B93B36B0C93F36B2B
S11335C002930D9300270AAE63E008230693073B9A
S11335D007937CE733680593F3689B467369039309
S11335E0337E04932623F35C9A4673689946002B32
S11335F018D080235B05994501D0002025E02723BE
S1133600F35C002B00D077E7336A1F00C0B2404B55
S1133610984701000E2206AB9C46624438003D4B9D
S1133620984712E008230693002307932723F35CAB
S1133630002B0ED0069B0093079B0E2206A98C46F6
S11336406244B16A306A344FB847002800D0E2E6D9
S113365052E7336A1F00C0B22D4B98470100069B06
S11336600093079B0E2206A88446624438002A4F22
S1133670B847EAE7F37E002B00D17DE78023DB0423
S11336801F4379E72000254B984707E00137042FB3
S11336900DD0F9B2BB0098590028F3D0431CF5D0E3
S11336A00EA90870000CC0B21D4B9847EEE700232A
S11336B0EB602B616B61AB61EB612B62AB626B62A4
S11336C00022EB85AB853033EA540133EA540133ED
S11336D0EA540133EA542868074B98470400114917
S11336E0114B9847A400114BE550002093E610239A
S11336F0069300230793EAE64D2E000000040040E1
S1133700A53F0000193F0000892C00000020004163
S1133710C13F0000912A0000B92A0000D52C000006
S11337209D400000CD370000892E0000CC01002010
S1133730C2791C23002A01D118007047C28D92B2AD
S1133740173B002AF8D10368DA69002AFCD11985ED
S113375002211A7E0A42FCD00023EDE782791C2361
S1133760002A01D118007047828D92B2173B002ABB
S1133770F8D10268107E4007F4D5D369002BFCD140
S1133780538BDBB298061DD0980703D502235383CD
S11337901833E7E7580703D5042353831A33E1E7C3
S11337A0D80703D5012353831233DBE7D80603D5A7
S11337B0102353833233D5E79B0603D52023538349
S11337C02133CFE7138D0B800023CBE7F8B58000BE
S11337D0624BC5582C68E369002BFCD1237EA67D7F
S11337E01E403023EB5C3122AF5C1F40F30722D52F
S11337F0EB8D9BB2002B1CD0AA6A1378DBB2511C50
S1133800A962697901290ED09BB2DB05DB0D238502
S1133810EB8D013B9BB2EB85002B0CD1013323755F
S11338200133A37507E0517809020B430232AA62FF
S1133830EBE701232375B30706D502232375002282
S11338403133EA54FB071AD4730765D5AB8D9BB2A9
S1133850002B5FD0638BDBB21A0714D43F221340D2
S1133860002B34D09A0711D51A223223EA54303B64
S113387063837B0750D528006B6998474CE0280088
S1133880EB689847E0E737221340E9E75A0705D584
S11338901E223223EA542E3B6383EAE7DA0705D576
S11338A013223223EA54313B6383E2E7DA0605D577
S11338B042223223EA54223B6383DAE720221A426B
S11338C0D7D021323223EA54123B6383D1E7238DCC
S11338D0DB05DB0DDAB2696A0A706A6A511C696237
S11338E06979012910D0AB8D013B9BB2AB85002BCC
S11338F012D10433237500222E33EA54BB070BD5AF
S113390028002B69984707E01B0A53706B6A013340
S11339106B62E8E704232375F30604D510232375AB
S11339202376FB060ED4B30604D520232375237611
S11339303B070BD4330704D5082323752376BB0632
S113394008D4F8BD2800EB699847ECE72800AB6978
S11339509847EFE72B6A28009847F2E7CC0100204C
S113396010B5082803D880001B4B1B589F46002025
S113397030E01A4B18692DE0194B1B6A9B059B0F0D
S11339801848D84026E0154B586923E0134B1B68B0
S113399000209B071ED512491022CB681A42FCD086
S11339A00E4B1B685B0701D40F4813E000200F4B3C
S11339B098470A4B9B681B041B0C58430AE050238E
S11339C0074AD35C00205B0704D5044BD86801E0A8
S11339D08020000210BDC0462C650000F0000020CD
S11339E00008004000127A00006CDC02C13F0000B5
S11339F070B50C490B6A0478857840780122104030
S1133A0080014026B34303432A40D20180208343EC
S1133A1013430322224012020348034013430B6260
S1133A2070BDC04600080040FFFCFFFFF0B5DE4655
S1133A3057464E464546E0B50100264B9B469B8AB9
S1133A40457800784242424191468878CA78944643
S1133A500A7990464E7B0F7B8C7B8A681E494A61AB
S1133A6001214A4692009146042293434A46134355
S1133A7042460A40D20090460822934342461343EA
S1133A8062460A401201944610229343624613434D
S1133A90084040012022934303430F40BF014020CC
S1133AA083433B430E40F60140308343334379382C
S1133AB005402D02094803402B43214009030848CF
S1133AC003400B435A4693823CBC90469946A24617
S1133AD0AB46F0BD00080040F0000020FFF8FFFFF7
S1133AE0FFEFFFFF10B5037A9B061B0C428992057A
S1133AF0920D134318494B608379C279134342886A
S1133B008488224313434278D20113430B60037821
S1133B10042B11D0202B0ED1037B9B06028A134366
S1133B20C28912040D490A4013430B4A9360116879
S1133B300B4B0B43136010BD037B9B06028A13439C
S1133B40C289120405490A401343034A9360136867
S1133B5004210B431360EEE7F00000200000FF0394
S1133B6024040000082803D88000254B1B589F46D6
S1133B70172044E0234A136A02210B4313620020F6
S1133B803DE0204A936902210B439361002036E013
S1133B901C4A138A02210B43138200202FE0194A86
S1133BA0938A02210B439382002028E016490B6874
S1133BB0022213430B60134B9A8419000E32CB6814
S1133BC01A42FCD0104A91680E4BD96252689A622C
S1133BD000229A8419001032CB681A42FCD00A4B96
S1133BE01B689BB2074A9384002008E005494422DD
S1133BF08B5C022003438B54002000E000207047BC
S1133C005065000000080040F0000020F0B58FB0BF
S1133C10C222D200474B9A60474A53681E218B4305
S1133C201A390B435360022201AB1A700024434D2E
S1133C30E0B201A9A8470134252CF9D10AA8002330
S1133C4003708370802212028260C37001220271A9
S1133C5003738373023242704373394B98470520D0
S1133C60384B984733490222CB681A42FCD0314A78
S1133C70938A80210B43938205AB00210022598053
S1133C8099809A71DA713F3159813B3919705A70B0
S1133C902D4B1B689B0E3F2B4AD005A803722B4B60
S1133CA00382072303733833C381294B984704A83D
S1133CB000254570012686700570264B984706201E
S1133CC0204FB847244B984701AC02966570257283
S1133CD065720523237021000120204B98470120A1
S1133CE01F4B9847267021000020144B9847002052
S1133CF01C4B98470720B8470E49D022CB68134085
S1133D00D02BFBD1184A0023137253729372D372CF
S1133D1001A901224A604B700B724B7207330B707E
S1133D2000200E4B984700200D4B98470FB0F0BD74
S1133D30203BB2E70008004000400041A53F0000DE
S1133D402D3A0000653B000024608000B9050000A6
S1133D50E53A0000F13900006D3D0000913D00009E
S1133D60493E0000193F000000040040064A9369E0
S1133D7008210B4393610122044B1A7019000B783C
S1133D801342FCD17047C04600040040000C0040C0
S1133D9070B5060004000D782D0205434B78002B06
S1133DA002D08023DB021D434B7A002B02D08023F8
S1133DB01B031D434868012810D9431E184234D1FF
S1133DC0022830D90223002201325B009842FBD83A
S1133DD012023243140080235B031D430B7A002B31
S1133DE002D080239B031D43134A53785BB2002BFC
S1133DF0FBDB124B9847124B1E700F4A53785BB291
S1133E00002BFBDB0C4B9C601A0053785BB2002B3D
S1133E10FBDB094A5368802149020B401D4355606E
S1133E20084B984770BD0022D2E704023443802334
S1133E309B021D43D2E7C046000C0040F52700005A
S1133E40080C00403528000010B504000B4A5378D4
S1133E505BB2002BFBDB0A4B98470A4B1C70074AEA
S1133E6053785BB2002BFBDB044A516880235B026E
S1133E700B435360044B984710BDC046000C0040F0
S1133E80F5270000040C00403528000070B504003C
S1133E901A4A53785BB2002BFBDB194B9847194B3A
S1133EA01C70164A53785BB2002BFBDB134E706810
S1133EB0C004C00E144B98470500124B1C70766862
S1133EC0F602F60F114B1C700C4A53785BB2002BB0
S1133ED0FBDB0A4B9C682402240C0D4B9847002EF4
S1133EE007D1012C07D9210028000A4B9847050067
S1133EF001E00134E540280070BDC046000C0040DC
S1133F00F5270000040C004061390000080C004053
S1133F10352800006945000010B50400064B984799
S1133F20064B1C70064A53888021C9010B435380F9
S1133F30044B984710BDC046F5270000020C004012
S1133F40000C00403528000010B504000F4B9847C2
S1133F500F4B1C700F4A53881B05180F53880E49CA
S1133F600B40538053880D490B405380110080222D
S1133F70D2014B881342FCD106494A880302064801
S1133F80024013434B80064B984710BDF5270000B1
S1133F90020C0040000C0040FFF0FFFFFFBFFFFFDA
S1133FA03528000010B50C7824020443024B9847CE
S1133FB0A4B2024B5C8010BD493F0000000C0040DD
S1133FC010B50400064B9847064B1C70064B5C88E2
S1133FD02405240F054B98472000054B984710BD36
S1133FE0F5270000020C0040000C004035280000BA
S1133FF08D3E000030B5D378002B35D11378802B5B
S113400029D01B0680246402234354780225AC4340
S113401006D19478002C20D18024A402234341604B
S11340205478013C012C1CD90D042D0CA024E4056A
S11340302C431C4384620D0CD02424062C431C43C3
S11340408462D478002C22D15B031CD59378012B95
S11340501ED0416117E00023D7E7C024E4022343C4
S1134060DDE70D4C2340DFE741600C04240CA02362
S1134070DB05234383620C0CD0231B06234383629A
S1134080D378002B03D15378013B012B02D930BDE7
S11340908161F8E78160FAE7FFFFFBFF10B50A00D2
S11340A0C1090023002904D14309DB0105498C46D9
S11340B063441F242040012181401800024B98478B
S11340C010BDC04600440041F53F000070470000A9
S11340D010B5054B9847054B9847054B9847054B3A
S11340E09847054B984710BD0D3C0000652800001B
S11340F0CD40000075290000CD400000FEE700001F
S1134100F8B52A4A2A4B9A4211D01A00294B9A42EE
S11341100DD2294A03339B1A9B0801339B000022CA
S1134120234822498C58845004329A42FAD1234AB3
S1134130234B9A420AD2D34321495B1803218B4370
S113414004339B18002102C29342FCD11D4AFF2173
S11341501D4B8B439360FD3990235B001B4AD15068
S11341601B4AD3780325AB4302242343D370D3786B
S11341700C27BB4308263343D370164B987B30225D
S11341809043202210439873997BB9433143997328
S11341909A7BAA4322439A730F4A536880210B43A4
S11341A053600E4B98470E4B9847FEE71868000083
S11341B00000002078000020040000207800002087
S11341C0F801002000ED00E0000000000070004154
S11341D0005000410048004100400041D546000025
S11341E0ED430000F0B5C64600B50C00904600282B
S11341F00FD1002A11DD8F18094E0A4D30682100B5
S11342002B6898470134BC42F8D1404604BC904620
S1134210F0BD01235B429846F7E78046F5E7C046C8
S1134220F0010020E8010020F0B5C64600B50E00FC
S113423015000138022810D8002A11D000240C4B94
S113424098460C4F43461868315D3B6898470028F0
S113425008DB0134A542F5D106E00124644203E001
S1134260140001E001246442200004BC9046F0BD27
S1134270F0010020EC0100200300064A1268002A25
S113428004D0044A1068C318136070470249014AF5
S11342901160F6E708010020F821002001204042C7
S11342A0704780239B014B600020704701207047BA
S11342B00020704710B50248024B984710BDC04615
S11342C0746500004948000070B504000D000A0040
S11342D001000D480D4B9847012C02D0022C0DD043
S11342E070BD002D05D10A480A4B98470A4B9847E0
S11342F0F6E729000948054B9847F1E7002DEFD16F
S11343000748044B9847EBE7846500002D470000FD
S11343109865000049480000FD0E0000C4650000D7
S1134320EC65000010B582B00C002C2803D03228B4
S113433015D002B010BD0B78012B0DD0002BF8D195
S11343400E480F4B9847FF2300930E4B0222072180
S11343500D480E4CA047ECE70D4B9847E9E70D4894
S1134360074B9847A37862782178E07800900A4850
S11343700A4CA0470A480B4B9847DAE7AC660000A2
S113438049480000C0660000D066000055150000D2
S113439071150000D8660000EC6600002D4700008F
S11343A008670000D10E000070B582B005000E0051
S11343B000226B46DA80064C6B46991D2800A04704
S11343C00028F9D16B4606331B88337002B070BDE8
S11343D05D37000070B505008CB2034E2100280043
S11343E0B0470028FAD170BD31370000F0B599B05C
S11343F03F4B984702AA8023DB05029300235360B6
S1134400FF21118100219372D372012424201454BA
S113441001301454013013540130135493620530A5
S113442013540130135453611382D37611761177E8
S1134430517613239376517780235B03D3602D4BFE
S113444013632D4B536301235B429363D363E123D3
S11344505B021362294D2A4B1D602A492A4B1960BD
S11344602A492B4B19602B4928002B4B98472B4F7B
S11344703B68986800212A4EB0473B685868002181
S1134480B0472E683000274B98471F2318408440BC
S1134490254B1C602A68D369002BFCD133680222A7
S11344A0134333602148224B9847224B98471822E4
S11344B0002112A8204B9847204B129312A8204B9E
S11344C09847011E03D01F481F4B9847FEE7FF2360
S11344D000931E4B022207211D481E4CA0471E4973
S11344E01E481F4B98471F4C0020A047FCE7C046BE
S11344F0D140000002001600020017000C01002049
S1134500F0010020D5430000EC010020A943000085
S1134510E801002000140042F133000014000020E0
S11345205D480000C52E000000E100E014660000B4
S113453049480000D50100001D4700002543000044
S1134540C9110000846600002D470000C066000009
S1134550D066000055150000B5420000C9420000B5
S1134560550E0000C1120000002243088B4274D390
S113457003098B425FD3030A8B4244D3030B8B4260
S113458028D3030C8B420DD3FF22090212BA030C69
S11345908B4202D31212090265D0030B8B4219D34A
S11345A000E0090AC30B8B4201D3CB03C01A52416A
S11345B0830B8B4201D38B03C01A5241430B8B42B2
S11345C001D34B03C01A5241030B8B4201D30B039B
S11345D0C01A5241C30A8B4201D3CB02C01A5241C2
S11345E0830A8B4201D38B02C01A5241430A8B4285
S11345F001D34B02C01A5241030A8B4201D30B026E
S1134600C01A5241CDD2C3098B4201D3CB01C01A87
S1134610524183098B4201D38B01C01A5241430991
S11346208B4201D34B01C01A524103098B4201D37F
S11346300B01C01A5241C3088B4201D3CB00C01AEC
S1134640524183088B4201D38B00C01A5241430864
S11346508B4201D34B00C01A5241411A00D2014689
S1134660524110467047FFE701B5002000F006F8FC
S113467002BDC0460029F7D076E770477047C046B0
S1134680F0B5CE46474615042D0C2E0080B5070420
S1134690140C3F0C9946030C7E435D43674363430C
S11346A07F19340CE4199C46A54203D980235B028C
S11346B09846C4444B46514343433604360C250CB8
S11346C024046544A4195918491920000CBC9046C7
S11346D09946F0BD70B500260C4D0D4C641BA4101A
S11346E0A64209D1002602F087F80A4D0A4C641B41
S11346F0A410A64205D170BDB300EB58984701360B
S1134700EEE7B300EB5898470136F2E7046800007F
S113471004680000046800000868000003008218B0
S1134720934200D1704719700133F9E70FB40B4B72
S113473013B51C68002C05D0A369002B02D12000FE
S113474000F006FB05AB049AA1682000019300F079
S1134750DBFC16BC08BC04B01847C046140000209B
S1134760084B70B51C680500002C05D0A369002B0C
S113477002D1200000F0ECFA2900A268200000F029
S113478067FF70BD1400002070B505000E000028FE
S113479004D08369002B01D100F0DAFAAB69AC686C
S11347A0002B02D1280000F0D3FA244B9C420FD1F5
S11347B06C68A3891B0702D52369002B20D1210033
S11347C0280000F057F900281AD00120404270BD9B
S11347D01B4B9C4201D1AC68EBE71A4B9C42E8D1DD
S11347E0EC68E6E7013B0136A360002B04DAA2691A
S11347F0934216DB0A2914D023685A1C22601970CC
S11348003178A3680029EDD1013BA360002B0FDAB6
S113481022000A31280000F0D7F8431CD5D00A2022
S1134820D5E72200280000F0CFF8431CE8D1CCE7FC
S11348300A2023685A1C22601870C8E784670000A5
S1134840A46700006467000010B5034B01001868FA
S1134850FFF79AFF10BDC046140000204A424A41A7
S1134860802310B55200DB0000F002F810BD0000F8
S1134870F0B51D004F4B85B01E6804000F00009278
S1134880002E05D0B369002B02D1300000F060FA8D
S1134890494B9C4250D17468009B022B05D0012BDC
S11348A000D984E0002D00DA81E02100300000F01E
S11348B0E1F9616B002908D023004433994202D006
S11348C0300000F051FB002363630023A3616360A5
S11348D0A3891B0603D52169300000F045FBA38999
S11348E0364A1340A381009B022B5AD003AB02AA81
S11348F02100300000F0C2FAA3891843A081002DE2
S113490024D1029D280000F025FB0195071E42D109
S1134910029B0193AB4239D1012040420223A28978
S11349201343A3810023A36023004733236023613F
S11349300123636105B0F0BD214B9C4201D1B468F1
S1134940AAE7204B9C42A7D1F468A5E7002FD9D051
S1134950B369002B02D1300000F0FAF9009B012B5F
S113496003D1A389009A1A43A2810820A38927604E
S113497027616561184018D001201840002398422F
S113498011D06D42A360A5611800D3E7019800F02F
S1134990E1FA071EC0D08023A289019D1343A3819D
S11349A0D6E70020BAE7A560C4E7A060C2E701200B
S11349B04042BFE714000020846700005CF3FFFF5F
S11349C0A467000064670000F8B505000E00140039
S11349D0002804D08369002B01D100F0B9F9224BDF
S11349E09C422DD16C68A369A360A3891B0731D5B0
S11349F02369002B2ED023682269F7B2981A6369C1
S1134A00F6B2984205DB2100280000F033F90028B3
S1134A1026D1A3680130013BA36023685A1C22609D
S1134A201F706369984204D0A389DB071AD50A2E44
S1134A3018D12100280000F01DF9002812D00FE041
S1134A400A4B9C4201D1AC68CDE7094B9C42CAD1C8
S1134A50EC68C8E72100280000F00CF80028CAD050
S1134A60012676423000F8BD84670000A467000088
S1134A7064670000364B70B51D6806000C00002DFD
S1134A8005D0AB69002B02D1280000F061F9314B4D
S1134A909C420FD16C680C23E25E93B219072DD4AB
S1134AA0D90611D409230120336037331343A3817A
S1134AB0404270BD284B9C4201D1AC68EBE7274BC8
S1134AC09C42E8D1EC68E6E75B0713D5616B0029EB
S1134AD008D023004433994202D0300000F044FA55
S1134AE0002363632422A3899343A3810023636087
S1134AF0236923600823A2891343A3812369002B1C
S1134B000BD1A0218022A389890092000B409342FB
S1134B1003D02100300000F0D9F90123A289134009
S1134B2011D00023A36063695B42A3610020236961
S1134B308342BED10C23E25E1306BAD5402313434D
S1134B40A3810138B5E7920700D46369A360EDE758
S1134B501400002084670000A4670000646700005C
S1134B60F7B58A8905000C00130760D44B68002B45
S1134B7004DC0B6C002B01DC0020FEBDE76A002F77
S1134B80FAD000232E682B6080235B011A4034D0B6
S1134B90606DA3895B0706D56368C01A636B002B3D
S1134BA001D0236CC01A0200216A00232800E76A9E
S1134BB0B847A189431C06D12B681D2B31D82C4A38
S1134BC0DA40D3072DD50023636023692360CB0427
S1134BD005D5431C02D12B68002B00D16065616BA5
S1134BE02E600029C8D023004433994202D0280003
S1134BF000F0BAF900206063BFE70123216A2800AE
S1134C00B847431CC5D12B68002BC2D01D2B01D043
S1134C10162B01D12E60AFE74023A2891343A38151
S1134C20ABE740230B430120A3814042A5E70F6972
S1134C30002FA1D00B680F60DB1B019300239207A8
S1134C4000D14B69A360019B002B00DC94E7019B1E
S1134C503A00216A2800A66AB047002803DC4023F2
S1134C60A2891343DFE7019B3F181B1A0193EAE76C
S1134C70010040200B6970B505000C00002B01D128
S1134C80002070BD002804D08369002B01D100F0FE
S1134C905FF80B4B9C4209D16C680C22A35E002B7D
S1134CA0EED021002800FFF75BFFEAE7054B9C42AA
S1134CB001D1AC68F1E7044B9C42EED1EC68ECE71F
S1134CC084670000A46700006467000010B502490F
S1134CD000F0B2F810BDC046754C0000002310B5BA
S1134CE0040003604360836081814366C281036181
S1134CF043618361190008225C30FFF70FFD054B07
S1134D0024626362044BA362044BE362044B236397
S1134D1010BDC046E156000009570000415700008D
S1134D206D57000070B568254A1E55430E002900D2
S1134D30743100F063F9041E08D000212A000160D8
S1134D4046600C30A0606832FFF7E8FC200070BDBC
S1134D50836913B50400002B28D18364C3640365FD
S1134D60134B144A1B6882620193984201D10123B8
S1134D708361200000F020F86060200000F01CF83F
S1134D80A060200000F018F80022E06004216068B0
S1134D90FFF7A4FF01220921A068FFF79FFF022269
S1134DA01221E068FFF79AFF0123A36113BDC046F7
S1134DB060670000CD4C0000F8B51E4B07001E686C
S1134DC0B369002B02D13000FFF7C2FF4836B46844
S1134DD07368013B04D53368002B07D03668F6E7C7
S1134DE00C22A55E002D0DD06834F2E704213800B2
S1134DF0FFF798FF30600028F0D10C2304003B60DB
S1134E002000F8BD012320005B42E3810233A3812B
S1134E1065662560A560656025616561A5610822F8
S1134E2029005C30FFF77AFC6563A563A564E5643B
S1134E30E6E7C04660670000F7B5040007000026F7
S1134E4001914834002C01D13000FEBD6368A5688F
S1134E500093009B013B009301D52468F2E7AB89E2
S1134E60012B08D90E22AB5E013304D0290038008F
S1134E70019B984706436835EBE7000070B50E00C8
S1134E801D000E23C95E90B01400002907DA002328
S1134E902B60B3891B0611D48023DB000FE001AA29
S1134EA000F090FC0028F2DBF022029B1202134077
S1134EB0054A9B185A4253412B60EDE740230020DA
S1134EC0236010B070BDC04600E0FFFFF7B50226B6
S1134ED08B8905000C00334206D02300473323603E
S1134EE0236101236361F7BD01AB6A46FFF7C6FF87
S1134EF000990700280000F081F8002808D10C224E
S1134F00A35E9A05EFD4032293431E43A681E4E7EC
S1134F100F4BAB628023A28920601343A381009BC3
S1134F2020616361019B002B0DD00E23E15E2800FC
S1134F3000F05AFC002806D00322A38993431A00E8
S1134F4001231343A381A0893843A081CBE7C04642
S1134F50CD4C000010B5034B0100186800F04EF86A
S1134F6010BDC0461400002070B50500002910D003
S1134F700C1F2368002B00DAE418280000F065FCFD
S1134F801D4A1368002B05D163601460280000F0EB
S1134F905DFC70BDA34209D9216860188342F3D136
S1134FA018685B6841182160EEE713005A68002A0C
S1134FB001D0A242F9D919685818A0420BD120682F
S1134FC00918581819608242E0D1106852684118D3
S1134FD019605A60DAE7A04202D90C232B60D5E7A6
S1134FE021686018824203D1106852684118216018
S1134FF062605C60CAE7C04640010020032370B5CC
S1135000CD1C9D43083506000C2D1ED20C25A9424B
S11350101DD8300000F019FC254A1468210000292D
S113502019D1244C2368002B03D1300000F046FB37
S113503020602900300000F041FB431C2CD10C23DC
S11350403000336000F002FC03E0002DDFDA0C23B3
S11350503360002070BD0B685B1B1AD40B2B03D983
S11350600B60CC18256003E08C420ED1636813609A
S1135070300000F0EBFB200007220B30231D90438F
S1135080C31AE7D05A42E250E4E74B6863600C006D
S1135090EEE70C004968C2E70323C41C9C43A0420A
S11350A0E0D0211A300000F009FB431CDAD1C6E736
S11350B04001002044010020936810B5013B936037
S11350C0002B05DA9469A34208DBCBB20A2B05D086
S11350D01368581C10601970C8B210BDFFF774FC37
S11350E0FBE7F8B506000F001400D518AC4201D157
S11350F0002007E021783A003000FFF7DDFF01349B
S1135100431CF3D1F8BD0000F0B59FB006000F00BA
S113511014000593002804D08369002B01D1FFF704
S113512017FE7F4B9F425CD17768BB891B0762D512
S11351303B69002B5FD0002306AD6B6120336B7697
S11351401033AB760294029C2378002B5DD1029B32
S1135150E31A04930DD0049B029A39003000FFF740
S1135160C0FF431C00D1CCE06A69049B94466344AD
S11351706B612378002B00D1C3E00122002352424B
S11351806A6002A95432521801342B60EB60AB60A0
S11351901370AB6521780522624800F04BFB631C59
S11351A09C46002835D12968CB0604D5532302AA8E
S11351B020309B1818700B0704D553232B2002AA08
S11351C09B18187023782A2B2CD000200A21099BC5
S11351D02278303A092A00D86BE000282AD00993B3
S11351E028E0514B9F4201D1B7689EE74F4B9F4245
S11351F09BD1F76899E739003000FFF73BFC0028A2
S113520099D0012040421FB0F0BD252B9FD001341E
S11352109AE7444B2968C01A012383400B432B604F
S11352206446B7E7059B181D1B680590002B3ADB05
S11352300993644623782E2B0BD16378621C2A2BA6
S11352403FD1059B02341A1D1B680592002B35DBE8
S1135250079321780322364800F0ECFA002807D09F
S1135260334B2A68C01A4023834013432B60013414
S11352702178631C06222F480293297600F0DAFA7B
S1135280002844D02C4B002B2FD12968059B0722E2
S1135290C90528D59B189343083305936B69039A72
S11352A09B186B614FE75B42EB6002230B432B605F
S11352B0BFE74B4301349B18012089E701235B427C
S11352C0C6E7002314000A201A006B6021783039E5
S11352D0092903D9002BBCD00792BAE74243013411
S11352E052180123F2E70733D5E705AB00933A00E0
S11352F0124B2900300000E000BF0390039B0133F0
S1135300CCD1BB895B0600D57BE70B987BE705AB6B
S113531000933A00094B2900300000F07FF8ECE7D5
S113532084670000C4670000A4670000646700008D
S1135330CA670000CE67000000000000E3500000D0
S1135340F7B5150001938A680B6900900C0093422D
S113535000DA130022002B6043321278002A01D0B5
S113536001332B6023689B0602D52B6802332B6024
S1135370062723681F4027D0230043331B785A1E77
S113538093412268920630D4220001994332009856
S1135390089EB047431C25D0062320682A68E1688C
S11353A003400025042B03D18D1AEB43DB171D406A
S11353B0A3682269934201DD9B1AED180027BD42C0
S11353C020D1002010E00137E3682A689B1A9F422D
S11353D0D2DA22000123193201990098089EB047BD
S11353E0431CF0D101204042FEBD3020E11843317E
S11353F0087021005A1C45310978A218433202333F
S11354001170C1E7220001231A3201990098089E05
S1135410B047431CE6D00137D1E70000F0B58BB0AC
S113542006920A0043320793059004920A7E0C0008
S1135430109B6E2A00D18FE017D8632A2CD008D88D
S1135440002A00D199E0582A54D0260042363270FE
S113545029E0642A01D0692AF7D121681A6808066C
S113546023D5111D1960156825E0732A00D188E041
S113547008D86F2A29D0702AE7D1202209680A4364
S1135480226003E0752A20D0782ADED12200782118
S1135490453211706C4A30E00E001A684236111D14
S11354A0196013683370012379E04906D9D5111DB9
S11354B019600023D55E002D03DA2D23049A6D4272
S11354C01370624B0A2703932FE0206819680506BE
S11354D003D5081D18600D6805E04006F9D50D6870
S11354E0081D1860ADB2594B082703936F2A18D0D2
S11354F00A2716E045310A70544A03921A68216853
S1135500101D18601568080622D5CB0702D5202384
S1135510194321601027002D03D1202322689A43C8
S113552022602300002243331A706368A360002BB7
S11355305CDB0422216891432160002D58D1049E34
S1135540002B64D02600039B42361B7833705EE048
S11355504806DAD5ADB2D8E709681A68080605D551
S1135560111D1960136862691A6006E04906F7D5CF
S1135570111D19601368A28A1A800023049E2361F6
S113558054E01A68111D1960166800216268300021
S113559000F050F9002801D0801B6060636823612B
S11355A00023049A137041E0236932000699059898
S11355B0079DA847431C43D0236800259B070FD4AD
S11355C0099BE06898423DDA18003BE02200012381
S11355D0193206990598079EB047431C30D001350F
S11355E0E368099A9B1A9D42F0DBE9E7002DA9D0F4
S11355F0049E28003900FFF73DF8039B013E5B5CE5
S1135600280033703900FEF7AFFF051EF1D1082FD3
S113561009D12368DB0706D563682269934202DC5B
S11356203023013E3370049B9B1B2361079B09AA13
S113563000932100069B0598FFF782FE431CB3D11B
S1135640012040420BB0F0BDE6670000D5670000C2
S113565070B506000D001400002804D08369002BE7
S113566001D1FFF775FB124B9C4211D17468A368FA
S1135670013BA360002B05DAA269934212DBEBB273
S11356800A2B0FD02368E8B25A1C22601D7070BD2B
S1135690084B9C4201D1B468E9E7074B9C42E6D130
S11356A0F468E4E7220029003000FFF78DF9EEE703
S11356B084670000A467000064670000002370B5DD
S11356C0064C050008002360FEF7D6FD431C03D1F9
S11356D02368002B00D02B6070BDC046F40100206D
S11356E070B50C000E25495F00F0B2F8002803DB0A
S11356F0636D1B18636570BDA389024A1340A381BF
S1135700F9E7C046FFEFFFFFF8B51F008B890500DE
S11357100C001600DB0505D50E23C95E002202230A
S113572000F074F8A389054A28001340A3813200CD
S11357300E23E15E3B0000F01FF8F8BDFFEFFFFF12
S113574070B50C000E25495F00F060F8A389421C77
S113575003D1054A1340A38170BD80225201134333
S1135760A3816065F8E7C046FFEFFFFF10B50E2385
S1135770C95E00F015F810BD70B5050008001100F1
S11357800022064C22601A00FEF74EFD431C03D192
S11357902368002B00D02B6070BDC046F4010020AC
S11357A0002370B5064C050008002360FEF776FD63
S11357B0431C03D12368002B00D02B6070BDC0466E
S11357C0F4010020002370B5064C05000800110008
S11357D02360FEF766FD431C03D12368002B00D031
S11357E02B6070BDF4010020002370B5064C050049
S11357F008002360FEF75AFD431C03D12368002BE5
S113580000D02B6070BDC046F401002070B50500C7
S1135810080011000022064C22601A00FEF748FD21
S1135820431C03D12368002B00D02B6070BDC046FD
S1135830F4010020C9B28218904201D100207047BF
S113584003788B42FBD00130F6E7704770470000C5
S113585070B50500080011000022064C22601A00F1
S1135860FEF7C0FC431C03D12368002B00D02B603F
S113587070BDC046F40100206E6D5F6275735F6990
S11358806F63746C00000000284150502928455271
S113589052295B25735D5B25645D0000696E76614A
S11358A06C69646520696F636C7420636D640000C7
S11358B0100D0000E80C0000E00C0000F80C0000E3
S11358C0F00C0000100D0000000D0000080D000099
S11358D06869665F73656E64000000006869665FEE
S11358E0697372006869665F68616E646C655F699C
S11358F0737200006869665F726563656976650046
S11359006869665F72656769737465725F63620074
S1135910286869662920574946495F484F53545FB0
S11359205243565F4354524C5F3120627573206674
S113593061696C0028686966292061646472657312
S11359407320627573206661696C0000286869665B
S11359502920436F72727570746564207061636B83
S113596065742053697A65203D202575203C4C20C0
S11359703D2025752C2047203D2025752C204F5097
S1135980203D20253032583E0A0000002868696610
S11359902920696E76616C69642067726F75702066
S11359A049440000286869662920686F737420617F
S11359B07070206469646E27742073657420525873
S11359C020446F6E650000002868696629205772BC
S11359D06F6E672053697A65000000002868696665
S11359E0292046616C736520696E746572727570E6
S11359F07420256C780000002868696629204661B7
S1135A00696C20746F205265616420696E746572DC
S1135A1072757074207265670000000028686966FA
S1135A2029204641494C20746F2077616B6575705D
S1135A30207468652063686970000000284849463E
S1135A4029204661696C20746F2068616E646C65FE
S1135A5020696E7465727275707420256420747286
S1135A607920416761696E2E2E0A000020686966FC
S1135A705F726563656976653A20496E76616C6923
S1135A806420617267756D656E740000415050202A
S1135A905265717565737465642053697A6520690C
S1135AA073206C6172676572207468616E2074681B
S1135AB065207265636976656420627566666572E1
S1135AC02073697A65203C25643E3C25643E0A00C7
S1135AD0415050205265717565737465642041644A
S1135AE06472657373206265796F6E64207468658F
S1135AF020726563697665642062756666657220E6
S1135B006164647265737320616E64206C656E6792
S1135B1074680000475270203F2025640A0000008A
S1135B2028484946294661696C20746F2077616B67
S1135B307570207468652063686970006D326D5FEC
S1135B406F74615F636200006D326D5F6F74615FDB
S1135B50696E697400000000496E7661696C6420A6
S1135B604F54412072657370202564203F0A000061
S1135B70496E7661696C64204F746120757064614C
S1135B807465206362000000496E7661696C64206C
S1135B904F7461206E6F746966792063620000003F
S1135BA06D326D5F776966695F6362006D326D5F48
S1135BB0776966695F696E69740000006D326D5FB4
S1135BC0776966695F636F6E6E6563745F736300A4
S1135BD0284150502928494E464F2900436F6E668C
S1135BE06C696374656420495020222025752E2534
S1135BF0752E25752E25752022200A005245512028
S1135C004E6F7420646566696E65642025640A00BD
S1135C104B6579206973206E6F742076616C6964BA
S1135C2000000000496E76616C6964204B65790060
S1135C3053534944204C454E20494E56414C494407
S1135C4000000000434820494E56414C494400009E
S1135C50496E76616C696420576570206B657920A4
S1135C60696E6465782025640A000000496E7661D7
S1135C706C696420576570206B6579206C656E676C
S1135C8074682025640A0000496E636F727265634C
S1135C90742050534B206B6579206C656E67746873
S1135CA000000000756E646566696E656420736546
S1135CB063207479706500004669726D776172655E
S1135CC0207665722020203A2025752E25752E25F4
S1135CD0750A00004D696E206472697665722076DB
